{
  "contractName": "TodoList",
  "abi": [
    {
      "constant": true,
      "inputs": [
        {
          "name": "",
          "type": "uint256"
        }
      ],
      "name": "tasks",
      "outputs": [
        {
          "name": "id",
          "type": "uint256"
        },
        {
          "name": "content",
          "type": "string"
        },
        {
          "name": "completed",
          "type": "bool"
        }
      ],
      "payable": false,
      "stateMutability": "view",
      "type": "function"
    },
    {
      "constant": true,
      "inputs": [],
      "name": "taskCount",
      "outputs": [
        {
          "name": "",
          "type": "uint256"
        }
      ],
      "payable": false,
      "stateMutability": "view",
      "type": "function"
    },
    {
      "inputs": [],
      "payable": false,
      "stateMutability": "nonpayable",
      "type": "constructor"
    },
    {
      "constant": false,
      "inputs": [
        {
          "name": "_content",
          "type": "string"
        }
      ],
      "name": "createTask",
      "outputs": [],
      "payable": false,
      "stateMutability": "nonpayable",
      "type": "function"
    }
  ],
  "bytecode": "0x60806040526000805534801561001457600080fd5b5061003c6040518060600160405280602481526020016104ee6024913961004160201b60201c565b610148565b600080546001908101808355604080516060810182528281526020808201878152828401879052938652848152919094208451815591518051929361008e939085019291909101906100ad565b50604091909101516002909101805460ff191691151591909117905550565b828054600181600116156101000203166002900490600052602060002090601f016020900481019282601f106100ee57805160ff191683800117855561011b565b8280016001018555821561011b579182015b8281111561011b578251825591602001919060010190610100565b5061012792915061012b565b5090565b61014591905b808211156101275760008155600101610131565b90565b610397806101576000396000f3fe608060405234801561001057600080fd5b50600436106100415760003560e01c8063111002aa146100465780638d977672146100ee578063b6cb58a514610195575b600080fd5b6100ec6004803603602081101561005c57600080fd5b81019060208101813564010000000081111561007757600080fd5b82018360208201111561008957600080fd5b803590602001918460018302840111640100000000831117156100ab57600080fd5b91908080601f0160208091040260200160405190810160405280939291908181526020018383808284376000920191909152509295506101af945050505050565b005b61010b6004803603602081101561010457600080fd5b503561021b565b604051808481526020018060200183151515158152602001828103825284818151815260200191508051906020019080838360005b83811015610158578181015183820152602001610140565b50505050905090810190601f1680156101855780820380516001836020036101000a031916815260200191505b5094505050505060405180910390f35b61019d6102ca565b60408051918252519081900360200190f35b60008054600190810180835560408051606081018252828152602080820187815282840187905293865284815291909420845181559151805192936101fc939085019291909101906102d0565b50604091909101516002909101805460ff191691151591909117905550565b600160208181526000928352604092839020805481840180548651600296821615610100026000190190911695909504601f810185900485028601850190965285855290949193929091908301828280156102b75780601f1061028c576101008083540402835291602001916102b7565b820191906000526020600020905b81548152906001019060200180831161029a57829003601f168201915b5050506002909301549192505060ff1683565b60005481565b828054600181600116156101000203166002900490600052602060002090601f016020900481019282601f1061031157805160ff191683800117855561033e565b8280016001018555821561033e579182015b8281111561033e578251825591602001919060010190610323565b5061034a92915061034e565b5090565b61036891905b8082111561034a5760008155600101610354565b9056fea165627a7a72305820feb34ee09d25d6285da182bf5b853e76468ed64bcd8c5b191ccee76256fe74ac0029436865636b206f75742068747470733a2f2f7777772e7669636b796c616e63652e636f6d",
  "source": "pragma solidity ^0.5.0; // First we have to define the solidity language version\n\ncontract TodoList { // We are defining a new smart contract called TodoList\n  uint public taskCount = 0; // The public keyword allows the solidity to create a function to call this variable from outside\n\n  struct Task { // custom datatypes are created in solidity using structs\n    uint id; // uint means unsigned integer which means it cant be negative\n    string content;\n    bool completed;\n  }\n  // mapping is like a hash table/associative array.\n  // Here we are defining the key to be a uint and its value to be of type Task\n  mapping(uint => Task) public tasks;\n\n  constructor() public {\n    createTask(\"Check out https://www.vickylance.com\");\n  }\n\n  function createTask(string memory _content) public {\n    taskCount++;\n    tasks[taskCount] = Task(taskCount, _content, false);\n  }\n\n  // function listTask() {\n\n  // }\n}\n",
  "sourcePath": "/Volumes/Projects/js/etherium/todo-dapp/contracts/TodoList.sol",
  "compiler": {
    "name": "solc",
    "version": "0.5.8+commit.23d335f2.Emscripten.clang"
  },
  "schemaVersion": "3.0.11",
  "updatedAt": "2019-07-13T10:10:53.204Z",
  "devdoc": {
    "methods": {}
  },
  "userdoc": {
    "methods": {}
  }
}